:400000000010002011000000590B0000590B000010B502F031FD00F0BFFDC04610B50B4C12232360182002F019FCFE221202084B1A60084A084B1A600022084B1A6040328C
:40004000074B1A601123236010BDC046300010400003014040FF008000000140280003400801014010B572B6EE2212020F4B1A600E220F4B1A600F230E4A13600E4A136000
:400080000E4A0F4B1A600F4A0F4B1A6002220F4B1A60DB2212010E4B1A600C220D4B1A60FFF7BCFF00F04EFD10BDC04600030240000004401800044000010440B60DC000A0
:4000C00008010440B601C0000802044000030440080304401804044000000000000000000000000000000000000000000000000000000000000000000000000000000000F8
:4001000010B5064C2378002B07D1054B002B02D0044800E000BF0123237010BD180100200000000028390000084B10B5002B03D00749084800E000BF07480368002B00D1A9
:4001400010BD064B002BFBD09847F9E7000000001C0100202839000080000020000000000FB400B59BB01CAA02CA009201A802F0CDFF01A800F054FD1BB008BC04B0184794
:40018000034B01221A70034A12685A607047C046340100204C02002010B5041E06D1002000F070FD0022084B1A720AE0012808D1012000F067FD044B044A1268DA60012232
:4001C0001A72014B1C7410BD340100204C02002010B50022024B1A70002000F053FD10BD3401002010B5144B1B78002B08D0012000F024FD012000F02DFD012000F036FD5C
:400200000E4C00236374002000F048FD002000F051FD002000F05AFDA37C002B05D0074B074A1268DA6001221A72044B0022DA741A759A7410BDC046E601002034010020A0
:400240004C02002070B5094C01266674084D2B68A361012000F022FD002000F02BFD002000F034FDE6742B68E36170BD340100204C02002070B5094C01266674084D2B687C
:40028000A361002000F00AFD012000F013FD002000F01CFD26752B68236270BD340100204C02002070B50A4C01266674094D2B68A361002000F0F2FC002000F0FBFC0120A7
:4002C00000F004FDA6742B6863620023237270BD340100204C02002010B5012002F09CF9642002F03BFA002002F096F910BDC04610B5084B5B7C002B0AD0064B9969064BCF
:40030000186800F0C9F9054B984201D9FFF76AFF10BDC046340100204C02002020BF020010B50D4B1B7C012B15D10B4B1B7A002B11D0094BD968094B186800F0ADF9084BA2
:40034000984208D90020FFF727FF034B5B7C002B01D1FFF7C1FF10BD340100204C0200203075000010B5134B1B78002B21D0114B5968114B186800F08FF9FA239B009842A4
:4003800017D928230B4AD35C002B07D1002000F079FC01212823074AD15406E0012000F071FC00212823034AD154034B1A68014B5A6010BD340100204C02002010B5144B47
:4003C0009B7C002B22D0124B596A124B186800F063F996235B00984218D9043BFF3B0C4AD35C002B07D1002000F040FC01212923074AD15406E0012000F038FC00212923D8
:40040000034AD154034B1A68014B5A6210BDC046340100204C02002010B5144BDB7C002B22D0124BD969124B186800F035F996235B00984218D9033BFF3B0C4AD35C002BA3
:4004400007D1002000F0FAFB01212A23074AD15406E0012000F0F2FB00212A23034AD154034B1A68014BDA6110BDC046340100204C02002010B5144B1B7D002B22D0124BD3
:40048000196A124B186800F007F996235B00984218D9023BFF3B0C4AD35C002B07D1002000F0D8FB01212B23074AD15406E0012000F0D0FB00212B23034AD154034B1A68D2
:4004C000014B1A6210BDC046340100204C02002010B5FFF747FFFFF771FFFFF79DFFFFF7C9FF10BD10B500232C220B498B540B4A1370012000F0C6FB012000F09FFB01203B
:4005000000F0A8FB012000F0B1FB0020FFF744FEFFF768FE10BDC04634010020E601002010B5114B5B7C002B04D0FFF75BFEFFF7D3FE17E00C4B1B7C012B13D1002804D189
:40054000FFF7CAFEFFF77EFE0CE0012804D1FFF7C3FEFFF78FFE05E0022803D1FFF7BCFEFFF7A0FE10BDC0463401002010B52C230F4AD35C002B19D0032817D100212C23A5
:40058000D1540C4B1B78002B08D10122094B1A700238FFF701FEFFF7F3FD07E00022054B1A700020FFF7F8FDFFF712FE10BDC04634010020E601002010B52C23124AD35C50
:4005C000002B20D1032811D1104B1B78002B0DD1FFF782FE0C4B1B7C002B03D10120FFF7DBFD10E00020FFF7D7FD0CE002280AD1FFF772FE642002F0B1F8FFF76DFE0121B6
:400600002C23014AD15410BD34010020E601002010B52C230C4AD35C002B13D1137C002B10D1002806D1FFF757FEFFF7DBFDFFF709FE07E0012805D1FFF74EFEFFF7D2FD8D
:40064000FFF718FE10BDC0463401002010B5064B1B78002B04D1FFF74BFEFFF761FE01E0FFF736FF10BDC046E601002070B5050002F0DAF900240BE0200002F0EDF9002805
:4006800004D12900200002F0DFF903E00134E4B2042CF1D970BDC046401A7047002817D1002903D16223264AD05A48E0012903D16C23234AD05A42E0022903D17623204ACA
:4006C000D05A3CE0032903D180231D4AD05A36E0012817D1002903D16423194AD05A2EE0012903D16E23164AD05A28E0022903D17823134AD05A22E0032903D18223104AF7
:40070000D05A1CE0022817D1002903D168230C4AD05A14E0012903D17223094AD05A0EE0022903D17C23064AD05A08E0032905D18623034AD05A02E0024800E00148704759
:4007400050020020FFFF000010B500F0DFFA00F063FE00F0F7FA642002F000F800F08CFC10BDC04610B5FFF7DBFE10BD10B5FA23DB00994202D1FFF71FFF05E0FA235B0053
:40078000994201D1FFF744FF10BDC04610B50400F423FF33994201D8FFF7E8FE022C02D10022014B1A7010BD60010020F0B55F4656464D464446F0B48DB000F0EFFD0028AF
:4007C00000D0FBE001F060FC002800D0F6E07F4B1B78002B07D101F0A1FD00F0B3FA01227A4B1A70EAE0002B00D1E7E0002001F05BFC764B588000221A7000F00DFE00F010
:40080000A1FA00F045FD00242BE021000120FFF745FF23016D4DED18A88021000020FFF73DFFE88021000220FFF738FF2881684B1A682A61002801D1EA6010E0230163497D
:40084000CB18D9681000FFF727FF624B984206D9200000F0FDFB5F492000FFF787FF0134E4B2032CD1D959488188C28803890B93848AC58A068B878CC38C9C46038D984614
:40088000838E9946C38E9A46038F408809900893534607934B460693434605936346049303970296019500940B9B4B48FFF758FC002480E02600200000F078FB431E984185
:4008C000424B984665002F19BF0047444423F8543F4B1868B96CFFF7DFFEF864434644332D19AD005D196B78012B1FD0002B02D0022B2DD03DE063001B199B00334AD31840
:4009000044229B5C002B34D0304963001A1992008A182F480068906444311B199B00CB1801225A702000FFF71DFF22E0FA235B0098421ED963001B199A00244B44339B18BA
:4009400002225A70FA2149002000FFF70FFF10E0FA23DB0098420CD963001B199A001B4B44339B1803225A70FA21C9002000FFF7FDFE73009B199A00144B44339B185B7898
:40098000002B16D01300114AD31844229B5C002B0FD10E4A1000443071008B199B00C318002058708E19B6009619F16C2000FFF7EDFE0134E4B2032C00D87BE70DB03CBCC3
:4009C00090469946A246AB46F0BDC046640100204C020020881300002C39000010B500217423034AD154002001F00AFE10BDC0466401002010B5124B5B88124A93421ED03F
:400A000074220F498A5C012A09D10F4A934206D8002174230A4AD154002001F0F1FD7423074AD35C002B0AD15288084B9A4206D901217423024AD154012001F0E1FD10BDB5
:400A400064010020FFFF0000A306000099070000034A1368013313600122024B1A7070474C020020DC01002010B562B6FFF73AFDFFF7B4FF2148FFF7F9FDFFF765FE204B53
:400A80001B78002B0ED000221D4B1A70002307E05A001B498A189188013191800133DBB2022BF5D9164B9B88092B04D90022144B9A80FFF77BFE124BDB88312B04D900224A
:400AC0000F4BDA80FFF7C2FD0D4B9B7A002B0AD10B4B1A890B4B9A42D1D90022084B1A81FFF788FFCBE7064B1A89074B9A42C6D90022034B1A81FFF77DFFC0E7510A0000C6
:400B0000DC0100200F270000E70300000B4B1B68002803D080221206134301E05B005B08064A1360064B1B68002802D02022134301E020229343024A13607047002002401B
:400B40002800034010B51122024B1A600120FFF7DDFF10BDC0020B4010B502F081FA03680C2B00D1FEE7FEE710B50300084A1068C318084A9A1A802A02DC054A136005E06D
:400B800002F06EFA0C2303600120404210BDC04684000020F002002070B50F4E0F4D13E029686B68AC68002202E001C901C30432A242FAD1E868002202E0002102C30432ED
:400BC0008242FAD11035013E002EE9D102F04EFAFFF74AFFFEE7C04601000000EC3A000010B500230AE0032B03D89A000849505800E008489900084A885001331F2BF2D9C5
:400C0000FFF730FA80229205044B1A6010BDC04600000000590B00000000002008ED00E070B505000078012404E001F039FF285D0134E4B20028F8D170BDC046044A136855
:400C4000DBB201218B430840184310607047C0460001044004490A68D2B202239A43400018401043086070470001044004490A68D2B204239A4380001840104308607047BD
:400C80000001044004490A68D2B208239A43C00018401043086070470001044004490A68D2B204239A43800018401043086070470002044004490A68D2B202239A43400079
:400CC000184010430860704700020440044A1368DBB201218B430840184310607047C0460002044010B5084B1B78002B06D100F023F900F06DF90122034B1A7000F044F852
:400D000000F0E6FC10BDC046E701002010B5FFF7E9FF041E02D100F061FC0400002C02D100F07AFB0400002C03D100F037FB0028FBD100F0F5F900F09FF901F085FB2000A8
:400D400010BDC04670B50E4E0024002513E06B0904339B000B4A9B581F222A40D340DB0707D5300000F048F804003100280000F0A9F81C360135032DE9D9200070BDC046BE
:400D80005C3900005002002070B5002309E012491A1D92008818002444600120404250500133002BF3D00D4C042310E06668A27E094B5B1900211976012A06D12069002881
:400DC00003D0F179228B02F080F91C342B005D1E002BEBD170BDC046500200205C39000030B50B884A889C1A0025CD800079844200DDCC8030BDC046F0B55F4680B484B008
:400E00000600837E062B02D10122934601E000229346F568B46872680192029300270023039314E0029A2100280000F0A5F9029A2100019800F0AEF9039021000198FFF7DD
:400E4000CFFF0A345B46002B00D106350137338B9F42E7D3039804B004BC9346F0BDC046F0B50A8B8D684F680B69012125E00C00044003D17E88BA79B21802E07A88BE799F
:400E8000921BEE88B24201D3002200E00A00A24202D01E78013E1E70A24202D01C78002C07D188431043002A01D1FA7900E001221A7049000A3501336246541EA446002AD0
:400EC000D5D1F0BD70B504008A7E134B1B181D7E012A04D12800FFF7C3FF050002E0002001F02AFC0C4B1B191D7663091F2214401E3AA240002D07D104339B000649CB18E2
:400F000059689143596006E004339B000249CB1859680A435A6070BD50020020054B0A21272299540531063A9954F031013299547047C0465002002070B5184D9022002135
:400F4000280002F0C2F8164B2B8080235B006B80144BAB800823AB8401221E33EA54124C28002A3021007431373202F0A5F82100043404230CE0A268238B04E00B78537224
:400F800001310A320300581E002BF7D11C342B005D1E002BEFD1FFF7C1FF70BD50020020E6A9FFFFB80B00005839000003280BD81F23034001229A404009031D9B00034861
:400FC000C3185868104000E000207047500200200023024AD380024A136070475002002018020020FF231940062902D08318002119715300195AC31859808218002313727B
:401000007047C04670B506000D00012305E0220029003000FFF7E6FF23005C1E002BF6D170BDC04670B5094CC3001D1AAA00A21895688A0051184A00AA181B1A990061187F
:40104000897E1000FFF7DEFF70BDC0465C39000070B50500C200121A9300064AD3181B8B04E021002800FFF7DDFF23005C1E002BF7D170BD5C39000010B5042303E02000F2
:40108000FFF7E6FF23005C1E002BF8D110BDC046F0B501230EE0FF231340062B09D065006F5A2E1973001F526F5AC3185F806D5A9D8023005C1E002BEDD1F0BD70B505009E
:4010C000C200121A93000F4AD3181B8B16E0EA00521B93000B4AD318A200121951009A6894466144DE6830009A7E062A03D063001B1958003018FFF7CBFF23005C1E002B76
:40110000E5D170BD5C39000010B5042303E02000FFF7D4FF23005C1E002BF8D110BDC04610B5FFF7F1FF10BDF0B5012420E0FF241440062C1BD05C00665AE7187D002D5A26
:401140007619E7187D0045196F88BC466644AF88F619B6086746AF80E7187F003F5A6F80655AAC46E7187D0067462F520E531C00631E002CDBD1F0BD10B5FFF7D5FF10BD43
:401180009840504380235B009A1A51434018000A7047C046F0B5474680B482B007000E00019201233EE06300985BF3185988884205D3431A321900251572012201E00B1A7C
:4011C0000022002A11D17D79AB420ED933191B7A3A7A934205D3220001993000FFF702FF1FE03219013313721BE03D79AB4204D97D79AB4215D2002A13D1FF23019A13406C
:40120000062B0ED00902331998461B79194308230122FFF7B5FF020A6300F3185A804346187123005C1E002BBDD1002002B004BC9046F0BD70B5094DC3001C1AA200AA18D9
:40124000546896688A005218510071181B1A9A00AA18927E2000FFF79DFF70BD5C39000070B50600C200121A9300084AD3181B8B002505E021003000FFF7DCFF05432300AB
:401280005C1E002BF6D1280070BDC0465C39000070B50025042304E02000FFF7E1FF054323005C1E002BF7D1280070BD70B504000D009F2808D91B4B994205D91A492800D2
:4012C00001F0DEFD002921D09F2C09D9FF235B009D4205D91549280001F0D2FD002917D09F2C07D97E2D05D97F21280001F0C8FD00290FD09F2C0FD93E2D0FD93F21280083
:4013000001F0BEFD00290BD000200AE0042008E0032006E0022004E0002002E0002000E0012070BDFE030000FF030000FF01000010B54B1EDBB2032B01D8102300E000238D
:40134000002911D0002B11D0642253430100180001F010FD002301E0013340000928FBD90A2804D9013B02E0002300E00023D8B210BDC04610B5064A1168064B0B4013605A
:40138000054A136801218B43136000F083FC10BD00040240FFF0FFFFA8020B40024BDB68802018407047C0465002002010B50E4BDB68DB030DD403280DD8430904339B0097
:4013C000094A9B581F220240D340DB0705D4012404E0112402E0012400E00024002C01D100F06AFC200010BD5002002010B5084BDB68DB0307D4074B1B78012B05D100F06F
:40140000D5FB002003E0112001E00120404210BD500200201C02002010B50F4BDB681B0618D400240120404211E02000FFF7BEFF00280BD1022C03D80122084B5A7002E07E
:401440000022064B5A70FFF7D1FF04E00134032CEBD900E0112010BD500200201C02002010B50400114B1B7883421DD0012B02D1FFF780FF07E0022B05D0042B03D0032BD8
:4014800001D000F033FE012C05D100F0F1F90122064B1A7008E0022C06D0042C04D0032C02D00022014B1A7010BDC0461C02002070B500200E4B16E019680A681C69A24374
:4014C0000A605C6822689D7E0721A9408A4311000622AA400A43226099680A685C69A2430A601C3301300328E6D900F0EDFD70BD203A000010B5064BDB681B0606D4FFF7AD
:4015000039FF0022034B1A70002000E0112010BD500200201C02002010B51B4A93780133DBB293709078C0B2FFF740FF041E09D1154B9B78032B02D10022134B5A70FFF773
:4015400055FF1EE0104B9B78032B11D10F4B1A8901321A81DA6880218A43DA60DA681202120ADA60DA6804061443DC60002408E0064AD3681B021B0AD360D16803060B43BF
:40158000D360002CC9D110BD1C02002050020020074A084B1A6001380002074B1860054B1B68002BFBDB054A024B1A607047C04640000040000001400003014040FF008027
:4015C00010B50300032801D8002000E00120002803D15521180000F04BFC10BD70B50024002504E02000FFF7EBFF05430134032CF8D9280070BDC04670B5002516E0EB001B
:401600005B1B9A000B4BD658002406E0E3001B1B9800301800F01EFB0134EA00521B9300044AD3181B7E9C42F0D30135032DE6D970BDC0465C390000C300181A8300024AC7
:40164000D3185B68588970475C3900000203121A01238B40013B9A4205D90202101A834203D3052002E0062000E00020C0B2704770B50E00FFF7E0FF05003188002200F082
:40168000ABF901002800FFF711FE041E04D168003188FFF7DBFF040021002800FFF748FE0001C0B22043307370BDC04610B5002409E0E200121B9300044AD31859682000AD
:4016C000FFF7D6FF0134032CF3D910BD5C39000010B5FFF7EBFFFFF7EBFE00F0C9F80120FFF7BEFE002010BD70B501F04EFA134A1168134B0B40136001F04BFA01F045FAE2
:40170000104A136804218B43136001F042FA01F03CFA0D4C23680D4D2B40C02252001343236001F036FA012001F004F901F02DFA23681D40256001F02CFA70BD0004024025
:40174000FFF0FFFF00040440080404403FFEFFFF01390843014B18607047C04600020B4010B5104B1B68702293431C0026230E4AD15C0E4801F0FEFA0D4B984204D82023D1
:401780002343084A13600BE0084B984204D830232343044A136003E040232343014A136010BDC046940000205002002000366E01001BB700034A044B1A60C1225204034B19
:4017C0001A60704700008301C0010B40C4010B40074B1A687F210A40064802431A60064A13680B40802109040B4313607047C046C0010B4000008301C4010B40064A1368A0
:4018000006490B431360064A064B1A60C1225204054B1A607047C046A8020B400100001000008301C0010B40C4010B4070B50E001500038801249C40013CA3001B195800D7
:40184000642101F097FA013083199C4200D22300B04201D8301A00E00020A84203D8AB4203D2062002E0062000E0002070BDC04670B5FFF7C1FEFFF737FFC0221203284B54
:401880001A60284A1168284D294311600024274B1C60274B1C601021264B1960264B1C60264B1C60264B1C60264B1C6026480460264B1C6026490E68264B3340C026F6003E
:4018C00033430B60244B196880267601314319600121224B196013682B43136080235B041F4A13601F49204A1160204A14600360FFF760FF26231E4AD05CFFF749FEFFF7E2
:401900002FFF1C4B1B681C4A13431C4A13600F221B4B1A601B4B1C60053A1B4B1A6070BD04020B40A8020B4001000010F4000B40B4020B40C0020B4020030B4084010B40D9
:4019400088020B4080020B4084020B4080010B4000040240FFF0FFFF94020B40A0020B40A4020B404112000088010B4090020B4050020020940000200010008000000B4031
:4019800000030B40F0010B4010030B4070B5050001F0FBF80C490B687F26B3430B4A14782D196A7A13430B6001F0F3F801F0EDF807490B68B343074A12681419627A13436D
:4019C0000B6001F0E6F870BDC0010B40903A0000C4010B40E002002010B503001400012088400138002B02D0190001F0C3F9053C012C00D84008002800D1013010BDC0464C
:401A000010B50E4B1A78D2B2D3009A1A93000C4AD3185B6859891B7B18045A1F012A02D8802292041043053BDBB2012B02D8490800D10131FFF78CFE10BDC0461E020020FD
:401A40005C39000010B50300408919881A7BFFF7C3FF0004000C014B186010BD14030B4010B50A2000F054FE01222D4B1A6000232C490B602C482D4908602D490B600620AD
:401A80002C4908602C490A602C490A60832149002B4A11602B4A136003222B4B1A60E123DB0100E0013B264A1268520701D4002BF8D1002B02D10822234B1A6083225200AC
:401AC0001F4B1A600A2000F02DFE0A2000F016FE0023194A1360154A1360154A1360154A13605021154A11604F390E4A11600C4A1360164A1368802149040B431360022217
:401B0000104B1A60E123DB0100E0013B104A1268520701D0002BF8D10E4A0B4B1A6010BD80010B408C010B4001010100B0020B40B4020B4088020B4080020B40F0010B406A
:401B4000F0000B40F8000B4040030B4000020B4000000B400103000010B5054AD36805490B43D3600A2000F0E5FEFFF779FF10BD500200208000010070B50400857E067EC4
:401B800001F003F823681B680F22B24093431A000423B3401343666832680721A9408A4332602268136000F0F4FF70BD70B5194E3278D2B2184DD3009A1A9300EB185868C7
:401BC000164C002323703278D2B2D3009A1A9300EB1899682378DBB29A00D3185A008A180F4B1A60FFF7D2FE3378DBB2DA00D31A9A0050592278D2B2D3009A1A9300C018EC
:401C0000084B1860FFF7B8FF074800F039FDFFF7A3FF70BD1E0200205C3900001F020020E0020020E4020020D92C000010B5C300181A8300054A9858CB00591A8B00C018B2
:401C4000034B1860FFF798FF10BDC0465C390000E402002070B50400007EA57E21680B680F22824093430B6000F08FFF61680B680722AA4093431A000623AB4013430B6017
:401C800000F087FFA1680B68607E0122824093430B6070BD10B5064B1B78012B06D1054B1868FFF7D7FF0022014B1A7010BDC04620020020E402002070B5124EC200121A33
:401CC0009300F3185D68C0B20F4C20700120FFF7C7FBFFF7DFFF2378DBB2DA00D31A9A0092590A4B1A600A4BDA687F218A43DA602178DA680A43DA602800FFF7A3FEFFF7DF
:401D00007FFE70BD5C3900001E020020E40200205002002070B5C200121A9300134AD3185D68C9B2124C217099682378DBB29A00D3185A008A180F4B1A60FFF7BDFF280037
:401D4000FFF724FE2378DBB20B49DA00D31A98000B689C4660440860FFF70EFF0122074B1A70074800F08CFC70BDC0465C3900001F020020E0020020E402002020020020F3
:401D8000AD2C0000F0B5474680B482B007000E00904630490A78D2B2D3009A1A93002E4AD3185B680193002333700878C0B22B4B1978C9B2FFF7AEFFFFF70AFD00248025D1
:401DC000BC4202D23378AB4333706D0833782B4333700198FFF7DAFDFFF7BEFEE123DB0100E0013B1E4AD268120601D5002BF8D11C4B1B681C88002DE2D1164B1B78DAB21E
:401E0000D3009B1A9A00144BD058144B1A78D2B2D3009A1A9300C018134B1860FFF71AFF0022124B1A70FFF7E9FC220039000198FFF7FCFC43461A7833789A4201D24246EA
:401E40001370084B1B6832785A7202B004BC9046F0BDC0461E0200205C3900001F02002050020020E0020020E402002020020020F0B54F4680B484B004008946C200121A63
:401E80009300394AD3185F68012003AB18703B88984001384843642100F06CFF0190E2B2324B1A70324800F0EBFB3E0009360022304B1A7000250AE003AA31000198FFF728
:401EC00061FF05432B4A13780133DBB21370E200121B9300244AD318DA7E264B1B78DBB29A42E9D803AB1B7801335B087B720022204B1A7024E0E200121B93001A4AD318A4
:401F00009E681C4B1B78DBB29A00D3185A00B618194B1E60737A787A83420AD31B1AD8B270724B4658436330642100F023FF707201E0002373720F4A13780133DBB213701A
:401F4000E200121B9300084AD318DA7E094B1B78DBB29A42CFD80022064B1A70280004B004BC9146F0BDC0465C3900001E020020AD2C00001F020020E0020020F8B54F46DD
:401F80004646C0B4040089462F49C300181A82008A18107E8046977E1B1B9A0055582E680F2383409E4300F0F0FD4B46012B21D10722130041468B401E432E60E100091B5D
:401FC0008B002149CB1859680B68BA4093431A000123BB4013430B606B0520D5092F03D101221A4B1A601AE0062F18D11022174B1A6014E02E60E200121B9300124AD31807
:4020000059680B680722BA4093430B606B0506D5092F01D0062F02D100220C4B1A6000F0B8FD0948E300191B8A00821891680A681C1BA300C318587E012383409A430A6064
:402040000CBC90469946F8BD043A0000C0020B4010B5FFF793FF10BD3B230343084A136080235B02984203D0002804D1082204E00222FF3201E00222FF32024B1A6070479F
:4020800020030B4040030B40054B1B685B0005D42023044AD05C113B984300E080207047E0000B4050020020002805D10C304000034B1818808800E0024880B27047C0464C
:4020C00050020020FFFF000010B5002404E0E0B20021FFF7BDFF0134002CF8D0FF212223014AD15410BDC0465002002070B51E4B1B78012B36D11F331C4AD35C0F229343B9
:402100000CD00020FFF7A8FF184D2024285D0F2318400021FFF79CFF00232B550024144B1C60144B1C60144B1C60144B1C60144B1C60144B1C60144B1C60144B1C60144B9E
:402140001C60144B1C60144B1C6000F01EFD134A1168134B0B40136000F01BFDFFF7B4FF014B1C70002070BD2102002050020020C4010B4088010B4084010B4080010B4025
:4021800080020B4084020B4088020B40A0020B40A4020B40B0020B40B4020B4094020B40FFFFEEFF074A084B1A6001380002074B1860054B1B68002BFBDB054A024B1A60F7
:4021C0007047C04640000040000001400003014040FF008070B50120FFF7E4FF0322284B1A60284A284B1A602123284AD35C284A1343284A13601D22274B1A600024274B7B
:402200001C60274B1C60274B1C600125264B1D601B3A264B1A6080235B05254A136080214903244A1160244A1460244A1460244A14608822520423490A6023490A60234A82
:40224000136000F0A2FC224A1368882149030B43136000F09EFC1F4A1F4B1A601F4B1C601F4A204B1A60832252001F4B1A601F4B1C601F4800F004FA1E4B1D7070BDC04676
:4022800000020B400210008500000B405002002080000004C4010B4000030B408C010B40C0020B4004020B4010030B4014030B4080020B4084020B4088020B40A0020B4045
:4022C000A4020B40B0020B40B4020B40A8020B4094020B404111000088010B4090020B400100008080010B40F0000B40F8000B40552400002102002010B5FFF7FBF80400DD
:40230000054B1B78002B05D1002802D1FFF762FF00E00424200010BD2102002070B50500FFF7EAFF041E2ED1002D00D00134002C29D12023154AD35C0F22934300D00434CD
:40234000002C20D1052000F0F5FA40232B43DBB20E4A202153542223D05C85420BD0FF2802D00021FFF774FE01212800FFF770FE2223064AD55480225200054B1A60C020FF
:402380008002FFF769FE200070BDC04650020020F8000B4010B5FFF7AFFF04002023214AD35C0F22934300D00424002C38D1052000F0C0FA22231B4AD05CFF2806D00021F5
:4023C000FFF746FEFF212223164AD154164B1B78164A107800021843154B58439621090100F0C8FC134B18800E4B0F21212299541149124A1160102120229954E032104B6D
:402400001A6080204002FFF727FE0E4A00E0013A20230449CB5C0F218B4301D0002AF6D1200010BD5002002060F1FF0F61F1FF0F55080000980000208F000004C4010B4065
:40244000F8000B40FFFF000010B5FFF7C3FEFFF7A1FF10BDF0B5474680B400225E4B1A600732FF325D4B1A605D4B1C68002C00DAAAE0630000D5A2E05A4D20216B5CF73AAF
:4024800093438022520222402004000C6D5C11390D40202B4FD002D8102B3ED098E0302B63D0402B00D093E0002A0ED04E4B1B88984200D918001B1A9802C01A4A4B5988EF
:4024C0004A08801800F056FC16E0474CA3885B00584326887308C018310000F04BFCE388984200D9180030188302181A3E4B59884B08C01800F03EFC3A4E2C000C34640051
:402500003419E080384B1B895843384900F032FCA08000222023F2545AE0334B1C802023304AD354802252002B4B1A6080208002FFF792FD4CE02C4B9C8000F026FB2C4AB9
:4025400011682C4B0B40136000F023FB80235B00294A136030202022224988541E4A1360C0208002FFF778FD32E00025224B1D6000F00BFB1E4A1368882149030B4313608A
:4025800000F007FBA0B2184E4400B088604337887C080019390000F0EDFB83B2F380FA187280164A1288904653431819390000F06BFC4044308120230A4AD55408E0802194
:4025C0002023084AD15403E000212023054AD15404BC9046F0BDC046F8000B40F0000B40E0000B405002002022020020FF03000094020B40FFFFEEFF88020B409800002063
:4026000004490A687F231A40C301D8B2104308607047C0460002044004490A687F231A40C301D8B2104308607047C04600010440014B98667047C0460000002010B504001D
:4026400000F0A3FA044A1168044B0B40A4051C43146000F09EFA10BD08E400E0FFFF3FFF8022D200014B1A607047C04600E100E08022D200014B1A607047C04680E100E0A3
:4026800010B50400FFF7F4FF2000FFF7D1FF0320FFF7D4FFFFF7E4FF10BDC0460C4B1B689B001C22134018330A4A1268920803210A40D34008490868084A02400A60084A9F
:4026C000944663441B78DBB2064A13607047C046080F03402800034000000740FFFFFFBFCDF1FF0F0C0F0340034B18688023DB05184000D001207047000007401F23184095
:402700001E3B8340014A13607047C04600E100E01F2318401E3B8340014A13607047C04680E100E01F2318401E3B8340014A13607047C04680E200E001BE704770B50400BD
:402740000D000F2802D90020FFF7F6FFA40080239B059C4664442068256070BD10B5040006E0084B586800F007FA074B9C46644480231B029C42F4D8024B9868604300F0AB
:40278000FBF910BD9C0000200080FFFF70B582B000F068F900284DD000F0F7F90500264B1A6892001C231A401832244B1B689B0803210B40DA400021214B1960214C2168CA
:4027C000214B0B4021494A438021C9018C466244D20B013A5205520D1343A0225203134323601B4B1B680193302000F099FA194A13688021C9050B4313602668164B1E4089
:40280000002407E00120FFF7A9FF1034A30533430C4A1360EE2CF5D90120FFF79FFFFF239B051E43074B1E60019A094B1A60280000F0AFF902B070BD080F03402800034046
:402840000C0F03400800074000F800C040420F003000104000000740FFFF3FC0F0B583B0040018280BD01C2809D0202807D0242805D0282803D02C2801D0302849D100F0A0
:4028800084F90190FFF730FF002803D0FFF706FF012600E00026214A136807218B4313601F4BE3181B78DBB21E4A13601E4A13688B4313601D4803687F22934319001C4B28
:4028C000E3181B7813400B430360322000F054F9182C16D9114F3B680725AB431A0023001C3B9B082B4013433B60322000F044F93A68AA432300183B9B082C001C401443CE
:402900003C60012E01D1FFF741FF019800F041F902E00020FFF710FF03B0F0BD080F0340CDF1FF0F0C0F0340100F0340180F0340B4F1FF0F10B5034B1B7B584300F01CF94E
:4029400010BDC0469C000020024A116802230B431360704710E000E010B5FFF7F5FF034A116801230B43136010BDC04610E000E00002000A014B18607047C04614E000E038
:40298000012805D1054A116804230B43136004E0024A136804218B431360704710E000E0024B1868000C01231840704710E000E010B5FFF7F5FF01280BD107E0A300054A67
:4029C0009B58002B00D09847013400E00024042CF4D910BD2C0200200022014B1A60704718E000E010B5002304E0990000200B4A88500133042BF8D909490F20FFF79EFE49
:402A00000120FFF7BDFF074B1869FA21890000F0B1F9FFF7ADFFFFF7DFFF10BD2C020020B12900009C00002010B5064B5B69002B04D1FFF7D7FF0122024B5A61FFF78CFF39
:402A400010BDC0462C020020024A8300985899507047C0462C0200208000014BC05870472C020020034B1B68002B01DA012000E00020704700000740014A024B1A607047DA
:402A80006588EDAC38000340000000000000000000000000000000000000000000000000FEB5494652465B460EB407462E4909688A462E4A12682E48022100F05BF9030001
:402AC0002A480068C0182A4900F054F906001F3EB346234A126801219140C9430C000125002600F052F8814651460B6823400B605846043000F040F83800F0402840904067
:402B00000B68234003430B60584600F035F80136072EF1D900200130012090400B68234003430B605846063000F026F8484600F030F8C046C046C0460EBC894692469B4668
:402B4000FEBDC046C046C046C046C046C046C046C046C046C046C046C046C046C046C046900000208C00002088000020AC00002000C20100000000000230800803D00130EF
:402B80000238FCD1C046C0467047EFF3108072B6704780F310887047104B1A78D2B2D3009A1A93000E4AD3185B680E4A11680A04120C188801238340013B9A4206D20A4BDE
:402BC0001A680A4B1B785B00D15205E0064A1168064A127852008B527047C0461E0200205C390000D0000B40E0020020903A000070B5274B1978C9B2264CCA00511A8A00E9
:402C0000A21850681A78D2B2D1008A1A9300E3181A7E013A204B1B78DBB29A4220D91E4C23780133DBB22370194D2A78D2B2D3009A1A9300174AD31899682378DBB29A00C8
:402C4000D3185A008A18154B1A60FEF79FFE2878C0B22178C9B2FEF7E9FFFEF701FF16E000220D4B1A700E4AD1680E4B0B40D3600D4B1B78012B02D1FEF74EFC07E0084B44
:402C8000DA6880218A43DA601A8901321A8170BD1E0200205C3900001F020020E002002050020020FFFFFEFF1D02002010B583225200064B1A60FFF76FFF054B1A890132B7
:402CC0001A81D968034A0A40DA6010BDF0000B40500200207FFFFEFF10B50D4B1B78DBB2DA00D31A9A000B4BD4580B4B1A78D2B2D1008A1A9300E41883225200074B1A60DF
:402D0000FFF74AFF2000FEF7A5FFFFF771FF10BD1E0200205C3900001F020020F0000B4070B50400FFF731FF0500102C05D8104A136803218B43136016E0202C07D80C49FA
:402D40000B6803229343023A13430B600CE0302C07D807490B6803229343013A13430B6002E00020FFF7E8FC2800FFF712FF70BD30001040002243088B4274D303098B42F5
:402D80005FD3030A8B4244D3030B8B4228D3030C8B420DD3FF22090212BA030C8B4202D31212090265D0030B8B4219D300E0090AC30B8B4201D3CB03C01A5241830B8B4292
:402DC00001D38B03C01A5241430B8B4201D34B03C01A5241030B8B4201D30B03C01A5241C30A8B4201D3CB02C01A5241830A8B4201D38B02C01A5241430A8B4201D34B0225
:402E0000C01A5241030A8B4201D30B02C01A5241CDD2C3098B4201D3CB01C01A524183098B4201D38B01C01A524143098B4201D34B01C01A524103098B4201D30B01C01A59
:402E40005241C3088B4201D3CB00C01A524183088B4201D38B00C01A524143088B4201D34B00C01A5241411A00D20146524110467047FFE701B5002000F0F0F802BDC046E6
:402E80000029F7D076E7704703460B437FD4002243088B4274D303098B425FD3030A8B4244D3030B8B4228D3030C8B420DD3FF22090212BA030C8B4202D31212090265D008
:402EC000030B8B4219D300E0090AC30B8B4201D3CB03C01A5241830B8B4201D38B03C01A5241430B8B4201D34B03C01A5241030B8B4201D30B03C01A5241C30A8B4201D302
:402F0000CB02C01A5241830A8B4201D38B02C01A5241430A8B4201D34B02C01A5241030A8B4201D30B02C01A5241CDD2C3098B4201D3CB01C01A524183098B4201D38B0161
:402F4000C01A524143098B4201D34B01C01A524103098B4201D30B01C01A5241C3088B4201D3CB00C01A524183088B4201D38B00C01A524143088B4201D34B00C01A5241AC
:402F8000411A00D201465241104670475DE0CA0F00D04942031000D34042534000229C4603098B422DD3030A8B4212D3FC22890112BA030A8B420CD3890192118B4208D3F3
:402FC000890192118B4204D389013AD0921100E08909C3098B4201D3CB01C01A524183098B4201D38B01C01A524143098B4201D34B01C01A524103098B4201D30B01C01A52
:403000005241C3088B4201D3CB00C01A524183088B4201D38B00C01A5241D9D243088B4201D34B00C01A5241411A00D20146634652415B10104601D34042002B00D5494294
:40304000704763465B1000D3404201B5002000F005F802BD0029F8D016E770477047C046014B18687047C046100100200E4B70B500251E000D4CE41AA410A54204D0AB0060
:40308000F35898470135F8E700F01EFD084B00251E00084CE41AA410A54204D0AB00F35898470135F8E770BDD43A0000D43A0000D43A0000DC3A0000002310B59A4203D081
:4030C000CC5CC4540133F9E710BD03008218934202D019700133FAE77047000030B59BB00091049108496D4602910591012182244942E981A4006946AC8100F075F80023D6
:40310000009A13701BB030BDFFFFFF7F10B513000A00010002480068FFF7E0FF10BDC04610010020F0B58E6885B007000C00039201939E4243D890238A89DB001A423ED0BE
:4031400003250969236801985B1A029363695D43EB0F5D19029B6D1001331B18AB4200D91D00530510D52900380000F037FB061E14D0029A2169FFF79FFFA289194B1340E3
:4031800080221343A38112E02A00380000F086FB061E0CD12169380000F0D4FA0C23402201203B60A38940421343A38117E0029B2661F61826606561019EED1AA560019B7C
:4031C000B34200D21E0032000399206800F0A5FA0020A3689B1BA36023689E19266005B0F0BDC0467FFBFFFFF0B59FB0029005938B890F0016001B0610D50B69002B0DD19F
:40320000402100F0EBFA38603861002804D10C23029A01381360D8E040237B61002306AD6B6120336B761033AB7634002378002B03D1A31B049312D003E0252BF9D001344C
:40324000F4E7A31B320039000298FFF76BFF431C00D1B4E06A69049B944663446B612378002B00D1ABE00122002352426A6002A95432521801342B60EB60AB601370AB65C3
:40328000534E21780522300000F03CFA002807D00123801B83402A68013413432B60EFE72B68DA0604D55322202102A8121811701A0704D553222B2102A812181170227857
:4032C0002A2A03D0099B00200A210EE0059A111D12680591002A01DB099204E05242EA60022213432B6001340BE02278303A092A04D84B4301349B180120F6E7002800D0E6
:40330000099323782E2B1ED163782A2B0AD1059B02341A1D1B680592002B01DA01235B42079310E000230A201A0001346B6021783039092904D84243013452180123F6E7EF
:40334000002B00D00792234E21780322300000F0D9F9002806D04023801B83402A68013413432B60217806221B48661C297600F0C9F9002812D0194B002B06D10722059B01
:40338000073393430833059314E005AB00933A00134B2900029800E000BF07E005AB00933A000F4B2900029800F08AF80390039B013304D06B69039A9B186B6135E7BB897D
:4033C0000B985B0601D5012040421FB0F0BDC046933A0000993A00009D3A00000000000025310000F7B5170001938A680B6900900C00934200DA130022003B60433212782A
:40340000002A01D001333B6023689B0602D53B6802333B60062523681D401ED0230043331B785A1E9341226892061CD53020E1184331087021005A1C45310978A2184332CE
:40344000023311700FE022000123193201990098089EB047431C0ED00135E3683A689B1A9D42F0DBDAE72200019943320098089DA847431C02D10120404220E006232068E4
:40348000E1683A6803400025042B03D18D1AEB43DB171D40A3682269934201DD9B1AED180027BD420AD0220001231A3201990098089EB047431CDED00137F2E70020FEBD35
:4034C000F0B58BB006920A0043320793059004920A7E0C00109B6E2A00D1ABE011D8632A22D009D8002A00D1B5E0582A00D0C5E045310A70814A4FE0642A1DD0692A1BD02A
:40350000BCE0732A00D1AAE009D86F2A29D0702A00D0B3E0202209680A43226037E0752A1FD0782A33D0A9E00E001A684236111D196013683370A4E021681A68080606D4EE
:40354000490604D5111D19600023D55E02E0111D19601568002D3BDA2D23049A6D42137036E021681A68080606D4490604D51568111D1960ADB202E0111D196015685F4B5A
:40358000227E039308276F2A1DD00A271BE022007821453211705A4A19680392081D226818600D68100602D4500600D5ADB2D30702D520231A4322601027002D03D1202327
:4035C00022689A4322602300002243331A7002E00A274A4B03936368A360002B09DB0422216891432160002D05D1049E002B11D07BE0002D79D0049E28003900FFF740FCC7
:40360000039B013E5B5C280033703900FFF7B2FB051EF1D1082F09D12368DB0706D563682269934202DC3023013E3370049B9B1B23612BE009681A68080607D4490605D5EA
:40364000111D19601368A28A1A8004E0111D1960136862691A600023049E236116E01A68111D1960166800216268300000F04AF8002801D0801B6060636803E02600423644
:403680003270012323610023049A1370079B09AA00932100069B0598FFF7A4FE431C02D10120404227E02369320006990598079DA847431CF4D0236800259B070FD4099B38
:4036C000E068984217DA180015E022000123193206990598079EB047431CE1D00135E368099A9B1A9D42F0DBE9E72600039B42361B7833708EE70BB0F0BDC046A43A0000AB
:40370000B53A0000C9B28218904204D003788B4202D00130F8E70020704710B5884202D98B18984201D3002305E09B1A013A08D3995C8154FAE7934203D0CC5CC454013389
:40374000F9E710BD70B50500002944D00C1F2368002B00DAE418280000F0D8F81E4A13681100002B02D16360146031E0A3420DD92268A018834203D118685B688218226057
:4037800063600C6024E0A24203D813005A68002AF9D11E689819A0420BD12168711858181960824214D110685268411819605A600EE0A04202D90C232B6009E021686018A8
:4037C000824203D1106852684118216062605C60280000F09CF870BD48020020032370B5CD1C9D43083506000C2D01D20C2501E0002D01DBA94202D90C23336048E0300006
:4038000000F084F8234B1C681A002100002913D00B685B1B0DD40B2B02D90B60CC181EE08C4202D1636813601AE04B6863600C0016E00C004968E9E7174C2368002B03D1F0
:40384000300000F051F820602900300000F04CF8431C18D00323C41C9C43A0420DD12560300000F054F8200007220B30231D9043C31A0ED05A42E2500BE0211A300000F08F
:4038800033F8431CEBD10C233000336000F03FF8002070BD4802002044020020F8B506000C001500002904D11100FFF797FF040018E0002A03D1FFF745FF2C0012E000F0DB
:4038C00027F885420ED929003000FFF787FF071E07D021002A00FFF7EFFB21003000FFF731FF3C002000F8BD002370B5064C050008002360FDF738F9431C03D12368002B3F
:4039000000D02B6070BDC046E8020020704770470B1F1A68101F002A04DA891804390B68D0180438704700000000000025642C25642C25642C25642C25642C25642C2564AB
:403940002C25642C25642C25642C25642C25642C25640D0A0000000020202020203A00007A020020B2020020000200201402002001280000010001013C3A00008802002004
:40398000BC020020F8010020100200200128000001000101583A000096020020C6020020F00100200C0200200128000001000101743A0000A4020020D0020020E8010020A6
:4039C0000802002001280000010001010A004800242409031E20080000000A008000404010031E20080000000B00A000505014031E20080000000A008000404010031E201F
:403A0000080000000004024008040440000404400404044000F00000080000000C030900000002400800044000000440040004400F000000010000000000000000000240D8
:403A4000080004400000044004000440F0000000020000000401030000000240080004400000044004000440000F0000040000000802060000000240080004400000044065
:403A80000400044000F00000080000000C030900004300232D302B2000686C4C0065666745464700303132333435363738394142434445460030313233343536373839616C
:403AC0006263646566000000F8B5C046F8BC08BC9E46704729010000E10B0000F8B5C046F8BC08BC9E46704701010000003B00008000002098000000D801000000000000E2
:403B000000000000F00200200003044003000000010000002000000455080000010000000000E02EC05D00001800000000366E0100000000000000000000000000000000BE
:403B400000000000000000000000000000000000913A000000000000000000000000000000000000000000000000000000000000000000000000000000000000000000007A
:403B800000000000000000000000000000000000B0000020000000000000000000000000000000000000000000000000000000000000000000000000000000000000000035
:403BC00000000000000000000000000000000000000000000000000000000000000000000000000000000000000000000000000000000000000000000000000000000000C5
:403C00000000000000000000000000000000000000000000000000000000000000000000000000000000000000000000000000000000000000000000000000000000000084
:403C40000000000000000000000000000000000000000000000000000000000000000000000000000000000000000000000000000000000000000000000000000000000044
:403C80000000000000000000000000000000000000000000000000000000000000000000000000000000000000000000000000000000000000000000000000000000000004
:0200000490303A
:020000004D169B
:0200000490402A
:200000000000000000000000000000000000000000000000000000000000000000000000E0
:0200000490501A
:0C0000000002190B11A90001191E5EBFBF
:0200000490600A
:0100000001FE
:00000001FF